{
  "_format": "hh-sol-artifact-1",
  "contractName": "Bible",
  "sourceName": "contracts/Bible.sol",
  "abi": [
    {
      "inputs": [],
      "stateMutability": "nonpayable",
      "type": "constructor"
    },
    {
      "inputs": [
        {
          "internalType": "address",
          "name": "",
          "type": "address"
        }
      ],
      "name": "ADMINS",
      "outputs": [
        {
          "internalType": "bool",
          "name": "",
          "type": "bool"
        }
      ],
      "stateMutability": "view",
      "type": "function"
    },
    {
      "inputs": [
        {
          "internalType": "string",
          "name": "",
          "type": "string"
        }
      ],
      "name": "BIBLE_VERSES",
      "outputs": [
        {
          "internalType": "string",
          "name": "BIBLE_VERSE",
          "type": "string"
        },
        {
          "internalType": "bool",
          "name": "BIBLE_VERSE_LOCKED",
          "type": "bool"
        }
      ],
      "stateMutability": "view",
      "type": "function"
    },
    {
      "inputs": [],
      "name": "SUPER_ADMIN",
      "outputs": [
        {
          "internalType": "address",
          "name": "",
          "type": "address"
        }
      ],
      "stateMutability": "view",
      "type": "function"
    },
    {
      "inputs": [
        {
          "internalType": "address",
          "name": "newAdminAddress",
          "type": "address"
        },
        {
          "internalType": "bool",
          "name": "shouldSetAsAdmin",
          "type": "bool"
        }
      ],
      "name": "addNewAdmin",
      "outputs": [
        {
          "internalType": "bool",
          "name": "",
          "type": "bool"
        }
      ],
      "stateMutability": "nonpayable",
      "type": "function"
    },
    {
      "inputs": [
        {
          "internalType": "string",
          "name": "verseIdentifier",
          "type": "string"
        },
        {
          "internalType": "bool",
          "name": "shouldLockVerse",
          "type": "bool"
        }
      ],
      "name": "lockBibleVerse",
      "outputs": [
        {
          "internalType": "bool",
          "name": "",
          "type": "bool"
        }
      ],
      "stateMutability": "nonpayable",
      "type": "function"
    },
    {
      "inputs": [
        {
          "internalType": "string",
          "name": "verseIdentifier",
          "type": "string"
        },
        {
          "internalType": "string",
          "name": "verse",
          "type": "string"
        }
      ],
      "name": "updateBibleVerse",
      "outputs": [
        {
          "internalType": "string",
          "name": "",
          "type": "string"
        }
      ],
      "stateMutability": "nonpayable",
      "type": "function"
    }
  ],
  "bytecode": "0x60a060405234801561001057600080fd5b503373ffffffffffffffffffffffffffffffffffffffff1660808173ffffffffffffffffffffffffffffffffffffffff168152505060018060003373ffffffffffffffffffffffffffffffffffffffff1673ffffffffffffffffffffffffffffffffffffffff16815260200190815260200160002060006101000a81548160ff021916908315150217905550608051610bfb6100be6000396000818161023d01526104be0152610bfb6000f3fe608060405234801561001057600080fd5b50600436106100625760003560e01c806340d4b2c1146100675780637c7c7c3c146100975780637e3569c4146100b5578063b6abf4a2146100e6578063ef8e285e14610116578063fc9c85a214610146575b600080fd5b610081600480360381019061007c91906107fb565b610176565b60405161008e9190610866565b60405180910390f35b61009f61023b565b6040516100ac91906108c2565b60405180910390f35b6100cf60048036038101906100ca91906108dd565b61025f565b6040516100dd9291906109ae565b60405180910390f35b61010060048036038101906100fb91906109de565b61032e565b60405161010d9190610a56565b60405180910390f35b610130600480360381019061012b9190610aa4565b6104a3565b60405161013d9190610866565b60405180910390f35b610160600480360381019061015b9190610ae4565b6105a6565b60405161016d9190610866565b60405180910390f35b6000600160003373ffffffffffffffffffffffffffffffffffffffff1673ffffffffffffffffffffffffffffffffffffffff16815260200190815260200160002060009054906101000a900460ff161561020457816000846040516101db9190610b4d565b908152602001604051809103902060010160006101000a81548160ff0219169083151502179055505b6000836040516102149190610b4d565b908152602001604051809103902060010160009054906101000a900460ff16905092915050565b7f000000000000000000000000000000000000000000000000000000000000000081565b60008180516020810182018051848252602083016020850120818352809550505050505060009150905080600001805461029890610b93565b80601f01602080910402602001604051908101604052809291908181526020018280546102c490610b93565b80156103115780601f106102e657610100808354040283529160200191610311565b820191906000526020600020905b8154815290600101906020018083116102f457829003601f168201915b5050505050908060010160009054906101000a900460ff16905082565b60606000836040516103409190610b4d565b908152602001604051809103902060010160009054906101000a900460ff161580156103b55750600160003373ffffffffffffffffffffffffffffffffffffffff1673ffffffffffffffffffffffffffffffffffffffff16815260200190815260200160002060009054906101000a900460ff165b156103f157816000846040516103cb9190610b4d565b908152602001604051809103902060000190805190602001906103ef9291906105c6565b505b6000836040516104019190610b4d565b9081526020016040518091039020600001805461041d90610b93565b80601f016020809104026020016040519081016040528092919081815260200182805461044990610b93565b80156104965780601f1061046b57610100808354040283529160200191610496565b820191906000526020600020905b81548152906001019060200180831161047957829003601f168201915b5050505050905092915050565b60003373ffffffffffffffffffffffffffffffffffffffff167f000000000000000000000000000000000000000000000000000000000000000073ffffffffffffffffffffffffffffffffffffffff1614156105515781600160008573ffffffffffffffffffffffffffffffffffffffff1673ffffffffffffffffffffffffffffffffffffffff16815260200190815260200160002060006101000a81548160ff0219169083151502179055505b600160008473ffffffffffffffffffffffffffffffffffffffff1673ffffffffffffffffffffffffffffffffffffffff16815260200190815260200160002060009054906101000a900460ff16905092915050565b60016020528060005260406000206000915054906101000a900460ff1681565b8280546105d290610b93565b90600052602060002090601f0160209004810192826105f4576000855561063b565b82601f1061060d57805160ff191683800117855561063b565b8280016001018555821561063b579182015b8281111561063a57825182559160200191906001019061061f565b5b509050610648919061064c565b5090565b5b8082111561066557600081600090555060010161064d565b5090565b6000604051905090565b600080fd5b600080fd5b600080fd5b600080fd5b6000601f19601f8301169050919050565b7f4e487b7100000000000000000000000000000000000000000000000000000000600052604160045260246000fd5b6106d082610687565b810181811067ffffffffffffffff821117156106ef576106ee610698565b5b80604052505050565b6000610702610669565b905061070e82826106c7565b919050565b600067ffffffffffffffff82111561072e5761072d610698565b5b61073782610687565b9050602081019050919050565b82818337600083830152505050565b600061076661076184610713565b6106f8565b90508281526020810184848401111561078257610781610682565b5b61078d848285610744565b509392505050565b600082601f8301126107aa576107a961067d565b5b81356107ba848260208601610753565b91505092915050565b60008115159050919050565b6107d8816107c3565b81146107e357600080fd5b50565b6000813590506107f5816107cf565b92915050565b6000806040838503121561081257610811610673565b5b600083013567ffffffffffffffff8111156108305761082f610678565b5b61083c85828601610795565b925050602061084d858286016107e6565b9150509250929050565b610860816107c3565b82525050565b600060208201905061087b6000830184610857565b92915050565b600073ffffffffffffffffffffffffffffffffffffffff82169050919050565b60006108ac82610881565b9050919050565b6108bc816108a1565b82525050565b60006020820190506108d760008301846108b3565b92915050565b6000602082840312156108f3576108f2610673565b5b600082013567ffffffffffffffff81111561091157610910610678565b5b61091d84828501610795565b91505092915050565b600081519050919050565b600082825260208201905092915050565b60005b83811015610960578082015181840152602081019050610945565b8381111561096f576000848401525b50505050565b600061098082610926565b61098a8185610931565b935061099a818560208601610942565b6109a381610687565b840191505092915050565b600060408201905081810360008301526109c88185610975565b90506109d76020830184610857565b9392505050565b600080604083850312156109f5576109f4610673565b5b600083013567ffffffffffffffff811115610a1357610a12610678565b5b610a1f85828601610795565b925050602083013567ffffffffffffffff811115610a4057610a3f610678565b5b610a4c85828601610795565b9150509250929050565b60006020820190508181036000830152610a708184610975565b905092915050565b610a81816108a1565b8114610a8c57600080fd5b50565b600081359050610a9e81610a78565b92915050565b60008060408385031215610abb57610aba610673565b5b6000610ac985828601610a8f565b9250506020610ada858286016107e6565b9150509250929050565b600060208284031215610afa57610af9610673565b5b6000610b0884828501610a8f565b91505092915050565b600081905092915050565b6000610b2782610926565b610b318185610b11565b9350610b41818560208601610942565b80840191505092915050565b6000610b598284610b1c565b915081905092915050565b7f4e487b7100000000000000000000000000000000000000000000000000000000600052602260045260246000fd5b60006002820490506001821680610bab57607f821691505b60208210811415610bbf57610bbe610b64565b5b5091905056fea2646970667358221220169b5fa2ffa8dce49dd447f9df3451c85dc02a37cf7efe6013eeaf6410edf29864736f6c63430008090033",
  "linkReferences": {},
  "deployedLinkReferences": {}
}