{
  "_format": "hh-sol-artifact-1",
  "contractName": "BibleBackup",
  "sourceName": "contracts/Bible-backup.sol",
  "abi": [
    {
      "inputs": [],
      "stateMutability": "nonpayable",
      "type": "constructor"
    },
    {
      "inputs": [
        {
          "internalType": "address",
          "name": "",
          "type": "address"
        }
      ],
      "name": "ADMINS",
      "outputs": [
        {
          "internalType": "bool",
          "name": "",
          "type": "bool"
        }
      ],
      "stateMutability": "view",
      "type": "function"
    },
    {
      "inputs": [
        {
          "internalType": "string",
          "name": "",
          "type": "string"
        }
      ],
      "name": "BIBLE_VERSES",
      "outputs": [
        {
          "internalType": "string",
          "name": "",
          "type": "string"
        }
      ],
      "stateMutability": "view",
      "type": "function"
    },
    {
      "inputs": [
        {
          "internalType": "string",
          "name": "",
          "type": "string"
        }
      ],
      "name": "BIBLE_VERSES_LOCKED",
      "outputs": [
        {
          "internalType": "bool",
          "name": "",
          "type": "bool"
        }
      ],
      "stateMutability": "view",
      "type": "function"
    },
    {
      "inputs": [],
      "name": "SUPER_ADMIN",
      "outputs": [
        {
          "internalType": "address",
          "name": "",
          "type": "address"
        }
      ],
      "stateMutability": "view",
      "type": "function"
    },
    {
      "inputs": [
        {
          "internalType": "address",
          "name": "newAdminAddress",
          "type": "address"
        }
      ],
      "name": "addNewAdmin",
      "outputs": [
        {
          "internalType": "bool",
          "name": "",
          "type": "bool"
        }
      ],
      "stateMutability": "nonpayable",
      "type": "function"
    },
    {
      "inputs": [
        {
          "internalType": "string",
          "name": "verseIdentifier",
          "type": "string"
        },
        {
          "internalType": "bool",
          "name": "shouldLockVerse",
          "type": "bool"
        }
      ],
      "name": "lockBibleVerse",
      "outputs": [
        {
          "internalType": "bool",
          "name": "",
          "type": "bool"
        }
      ],
      "stateMutability": "nonpayable",
      "type": "function"
    },
    {
      "inputs": [
        {
          "internalType": "address",
          "name": "adminAddress",
          "type": "address"
        }
      ],
      "name": "removeAdmin",
      "outputs": [
        {
          "internalType": "bool",
          "name": "",
          "type": "bool"
        }
      ],
      "stateMutability": "nonpayable",
      "type": "function"
    },
    {
      "inputs": [
        {
          "internalType": "string",
          "name": "verseIdentifier",
          "type": "string"
        },
        {
          "internalType": "string",
          "name": "verse",
          "type": "string"
        }
      ],
      "name": "updateBibleVerse",
      "outputs": [
        {
          "internalType": "string",
          "name": "",
          "type": "string"
        }
      ],
      "stateMutability": "nonpayable",
      "type": "function"
    }
  ],
  "bytecode": "0x60a060405234801561001057600080fd5b503373ffffffffffffffffffffffffffffffffffffffff1660808173ffffffffffffffffffffffffffffffffffffffff16815250506001600260003373ffffffffffffffffffffffffffffffffffffffff1673ffffffffffffffffffffffffffffffffffffffff16815260200190815260200160002060006101000a81548160ff021916908315150217905550608051610cc86100bf6000396000818161031701526104c00152610cc86000f3fe608060405234801561001057600080fd5b50600436106100885760003560e01c80637e3569c41161005b5780637e3569c41461013b578063b6abf4a21461016b578063bc1730031461019b578063fc9c85a2146101cb57610088565b80630a1b10e11461008d5780631785f53c146100bd57806340d4b2c1146100ed5780637c7c7c3c1461011d575b600080fd5b6100a760048036038101906100a29190610818565b6101fb565b6040516100b49190610860565b60405180910390f35b6100d760048036038101906100d29190610818565b6102fc565b6040516100e49190610860565b60405180910390f35b610107600480360381019061010291906109ed565b6103ff565b6040516101149190610860565b60405180910390f35b6101256104be565b6040516101329190610a58565b60405180910390f35b61015560048036038101906101509190610a73565b6104e2565b6040516101629190610b44565b60405180910390f35b61018560048036038101906101809190610b66565b610598565b6040516101929190610b44565b60405180910390f35b6101b560048036038101906101b09190610a73565b6106ad565b6040516101c29190610860565b60405180910390f35b6101e560048036038101906101e09190610818565b6106e3565b6040516101f29190610860565b60405180910390f35b6000600260003373ffffffffffffffffffffffffffffffffffffffff1673ffffffffffffffffffffffffffffffffffffffff16815260200190815260200160002060009054906101000a900460ff16156102a8576001600260008473ffffffffffffffffffffffffffffffffffffffff1673ffffffffffffffffffffffffffffffffffffffff16815260200190815260200160002060006101000a81548160ff0219169083151502179055505b600260008373ffffffffffffffffffffffffffffffffffffffff1673ffffffffffffffffffffffffffffffffffffffff16815260200190815260200160002060009054906101000a900460ff169050919050565b60003373ffffffffffffffffffffffffffffffffffffffff167f000000000000000000000000000000000000000000000000000000000000000073ffffffffffffffffffffffffffffffffffffffff1614156103ab576000600260008473ffffffffffffffffffffffffffffffffffffffff1673ffffffffffffffffffffffffffffffffffffffff16815260200190815260200160002060006101000a81548160ff0219169083151502179055505b600260008373ffffffffffffffffffffffffffffffffffffffff1673ffffffffffffffffffffffffffffffffffffffff16815260200190815260200160002060009054906101000a900460ff169050919050565b6000600260003373ffffffffffffffffffffffffffffffffffffffff1673ffffffffffffffffffffffffffffffffffffffff16815260200190815260200160002060009054906101000a900460ff161561048a57816001846040516104649190610c1a565b908152602001604051809103902060006101000a81548160ff0219169083151502179055505b60018360405161049a9190610c1a565b908152602001604051809103902060009054906101000a900460ff16905092915050565b7f000000000000000000000000000000000000000000000000000000000000000081565b600081805160208101820180518482526020830160208501208183528095505050505050600091509050805461051790610c60565b80601f016020809104026020016040519081016040528092919081815260200182805461054390610c60565b80156105905780601f1061056557610100808354040283529160200191610590565b820191906000526020600020905b81548152906001019060200180831161057357829003601f168201915b505050505081565b60606001836040516105aa9190610c1a565b908152602001604051809103902060009054906101000a900460ff166105fe57816000846040516105db9190610c1a565b908152602001604051809103902090805190602001906105fc929190610703565b505b60008360405161060e9190610c1a565b9081526020016040518091039020805461062790610c60565b80601f016020809104026020016040519081016040528092919081815260200182805461065390610c60565b80156106a05780601f10610675576101008083540402835291602001916106a0565b820191906000526020600020905b81548152906001019060200180831161068357829003601f168201915b5050505050905092915050565b6001818051602081018201805184825260208301602085012081835280955050505050506000915054906101000a900460ff1681565b60026020528060005260406000206000915054906101000a900460ff1681565b82805461070f90610c60565b90600052602060002090601f0160209004810192826107315760008555610778565b82601f1061074a57805160ff1916838001178555610778565b82800160010185558215610778579182015b8281111561077757825182559160200191906001019061075c565b5b5090506107859190610789565b5090565b5b808211156107a257600081600090555060010161078a565b5090565b6000604051905090565b600080fd5b600080fd5b600073ffffffffffffffffffffffffffffffffffffffff82169050919050565b60006107e5826107ba565b9050919050565b6107f5816107da565b811461080057600080fd5b50565b600081359050610812816107ec565b92915050565b60006020828403121561082e5761082d6107b0565b5b600061083c84828501610803565b91505092915050565b60008115159050919050565b61085a81610845565b82525050565b60006020820190506108756000830184610851565b92915050565b600080fd5b600080fd5b6000601f19601f8301169050919050565b7f4e487b7100000000000000000000000000000000000000000000000000000000600052604160045260246000fd5b6108ce82610885565b810181811067ffffffffffffffff821117156108ed576108ec610896565b5b80604052505050565b60006109006107a6565b905061090c82826108c5565b919050565b600067ffffffffffffffff82111561092c5761092b610896565b5b61093582610885565b9050602081019050919050565b82818337600083830152505050565b600061096461095f84610911565b6108f6565b9050828152602081018484840111156109805761097f610880565b5b61098b848285610942565b509392505050565b600082601f8301126109a8576109a761087b565b5b81356109b8848260208601610951565b91505092915050565b6109ca81610845565b81146109d557600080fd5b50565b6000813590506109e7816109c1565b92915050565b60008060408385031215610a0457610a036107b0565b5b600083013567ffffffffffffffff811115610a2257610a216107b5565b5b610a2e85828601610993565b9250506020610a3f858286016109d8565b9150509250929050565b610a52816107da565b82525050565b6000602082019050610a6d6000830184610a49565b92915050565b600060208284031215610a8957610a886107b0565b5b600082013567ffffffffffffffff811115610aa757610aa66107b5565b5b610ab384828501610993565b91505092915050565b600081519050919050565b600082825260208201905092915050565b60005b83811015610af6578082015181840152602081019050610adb565b83811115610b05576000848401525b50505050565b6000610b1682610abc565b610b208185610ac7565b9350610b30818560208601610ad8565b610b3981610885565b840191505092915050565b60006020820190508181036000830152610b5e8184610b0b565b905092915050565b60008060408385031215610b7d57610b7c6107b0565b5b600083013567ffffffffffffffff811115610b9b57610b9a6107b5565b5b610ba785828601610993565b925050602083013567ffffffffffffffff811115610bc857610bc76107b5565b5b610bd485828601610993565b9150509250929050565b600081905092915050565b6000610bf482610abc565b610bfe8185610bde565b9350610c0e818560208601610ad8565b80840191505092915050565b6000610c268284610be9565b915081905092915050565b7f4e487b7100000000000000000000000000000000000000000000000000000000600052602260045260246000fd5b60006002820490506001821680610c7857607f821691505b60208210811415610c8c57610c8b610c31565b5b5091905056fea2646970667358221220f5bc770be8349abee7dc625168cd7efa41aaf36d1c5dafbf6544847ba2741d1264736f6c63430008090033",
  "linkReferences": {},
  "deployedLinkReferences": {}
}