{
  "_format": "hh-sol-artifact-1",
  "contractName": "Counter",
  "sourceName": "contracts/Counter.sol",
  "abi": [
    {
      "inputs": [],
      "name": "count",
      "outputs": [
        {
          "internalType": "uint256",
          "name": "",
          "type": "uint256"
        }
      ],
      "stateMutability": "view",
      "type": "function"
    },
    {
      "inputs": [],
      "name": "dec",
      "outputs": [],
      "stateMutability": "nonpayable",
      "type": "function"
    },
    {
      "inputs": [
        {
          "internalType": "uint256",
          "name": "factor",
          "type": "uint256"
        }
      ],
      "name": "div",
      "outputs": [],
      "stateMutability": "nonpayable",
      "type": "function"
    },
    {
      "inputs": [],
      "name": "get",
      "outputs": [
        {
          "internalType": "uint256",
          "name": "",
          "type": "uint256"
        }
      ],
      "stateMutability": "view",
      "type": "function"
    },
    {
      "inputs": [],
      "name": "inc",
      "outputs": [],
      "stateMutability": "nonpayable",
      "type": "function"
    },
    {
      "inputs": [
        {
          "internalType": "uint256",
          "name": "factor",
          "type": "uint256"
        }
      ],
      "name": "mul",
      "outputs": [],
      "stateMutability": "nonpayable",
      "type": "function"
    }
  ],
  "bytecode": "0x60806040526040518061084001604052806040518060400160405280600c81526020017f31204368726f6e69636c6573000000000000000000000000000000000000000081525081526020016040518060400160405280600d81526020017f3120436f72696e746869616e730000000000000000000000000000000000000081525081526020016040518060400160405280600681526020017f31204a6f686e000000000000000000000000000000000000000000000000000081525081526020016040518060400160405280600781526020017f31204b696e67730000000000000000000000000000000000000000000000000081525081526020016040518060400160405280600781526020017f312050657465720000000000000000000000000000000000000000000000000081525081526020016040518060400160405280600881526020017f312053616d75656c00000000000000000000000000000000000000000000000081525081526020016040518060400160405280600f81526020017f31205468657373616c6f6e69616e73000000000000000000000000000000000081525081526020016040518060400160405280600981526020017f312054696d6f746879000000000000000000000000000000000000000000000081525081526020016040518060400160405280600c81526020017f32204368726f6e69636c6573000000000000000000000000000000000000000081525081526020016040518060400160405280600d81526020017f3220436f72696e746869616e730000000000000000000000000000000000000081525081526020016040518060400160405280600681526020017f32204a6f686e000000000000000000000000000000000000000000000000000081525081526020016040518060400160405280600781526020017f32204b696e67730000000000000000000000000000000000000000000000000081525081526020016040518060400160405280600781526020017f322050657465720000000000000000000000000000000000000000000000000081525081526020016040518060400160405280600881526020017f322053616d75656c00000000000000000000000000000000000000000000000081525081526020016040518060400160405280600f81526020017f32205468657373616c6f6e69616e73000000000000000000000000000000000081525081526020016040518060400160405280600981526020017f322054696d6f746879000000000000000000000000000000000000000000000081525081526020016040518060400160405280600681526020017f33204a6f686e000000000000000000000000000000000000000000000000000081525081526020016040518060400160405280600481526020017f416374730000000000000000000000000000000000000000000000000000000081525081526020016040518060400160405280600481526020017f416d6f730000000000000000000000000000000000000000000000000000000081525081526020016040518060400160405280600a81526020017f436f6c6f737369616e730000000000000000000000000000000000000000000081525081526020016040518060400160405280600681526020017f44616e69656c000000000000000000000000000000000000000000000000000081525081526020016040518060400160405280600b81526020017f4465757465726f6e6f6d7900000000000000000000000000000000000000000081525081526020016040518060400160405280600c81526020017f4563636c6573696173746573000000000000000000000000000000000000000081525081526020016040518060400160405280600981526020017f457068657369616e73000000000000000000000000000000000000000000000081525081526020016040518060400160405280600681526020017f457374686572000000000000000000000000000000000000000000000000000081525081526020016040518060400160405280600681526020017f45786f647573000000000000000000000000000000000000000000000000000081525081526020016040518060400160405280600781526020017f457a656b69656c0000000000000000000000000000000000000000000000000081525081526020016040518060400160405280600481526020017f457a72610000000000000000000000000000000000000000000000000000000081525081526020016040518060400160405280600981526020017f47616c617469616e73000000000000000000000000000000000000000000000081525081526020016040518060400160405280600781526020017f47656e657369730000000000000000000000000000000000000000000000000081525081526020016040518060400160405280600881526020017f486162616b6b756b00000000000000000000000000000000000000000000000081525081526020016040518060400160405280600681526020017f486167676169000000000000000000000000000000000000000000000000000081525081526020016040518060400160405280600781526020017f486562726577730000000000000000000000000000000000000000000000000081525081526020016040518060400160405280600581526020017f486f73656100000000000000000000000000000000000000000000000000000081525081526020016040518060400160405280600681526020017f497361696168000000000000000000000000000000000000000000000000000081525081526020016040518060400160405280600581526020017f4a616d657300000000000000000000000000000000000000000000000000000081525081526020016040518060400160405280600881526020017f4a6572656d69616800000000000000000000000000000000000000000000000081525081526020016040518060400160405280600381526020017f4a6f62000000000000000000000000000000000000000000000000000000000081525081526020016040518060400160405280600481526020017f4a6f656c0000000000000000000000000000000000000000000000000000000081525081526020016040518060400160405280600481526020017f4a6f686e0000000000000000000000000000000000000000000000000000000081525081526020016040518060400160405280600581526020017f4a6f6e616800000000000000000000000000000000000000000000000000000081525081526020016040518060400160405280600681526020017f4a6f73687561000000000000000000000000000000000000000000000000000081525081526020016040518060400160405280600481526020017f4a7564650000000000000000000000000000000000000000000000000000000081525081526020016040518060400160405280600681526020017f4a7564676573000000000000000000000000000000000000000000000000000081525081526020016040518060400160405280600c81526020017f4c616d656e746174696f6e73000000000000000000000000000000000000000081525081526020016040518060400160405280600981526020017f4c6576697469637573000000000000000000000000000000000000000000000081525081526020016040518060400160405280600481526020017f4c756b650000000000000000000000000000000000000000000000000000000081525081526020016040518060400160405280600781526020017f4d616c616368690000000000000000000000000000000000000000000000000081525081526020016040518060400160405280600481526020017f4d61726b0000000000000000000000000000000000000000000000000000000081525081526020016040518060400160405280600781526020017f4d6174746865770000000000000000000000000000000000000000000000000081525081526020016040518060400160405280600581526020017f4d6963616800000000000000000000000000000000000000000000000000000081525081526020016040518060400160405280600581526020017f4e6168756d00000000000000000000000000000000000000000000000000000081525081526020016040518060400160405280600881526020017f4e6568656d69616800000000000000000000000000000000000000000000000081525081526020016040518060400160405280600781526020017f4e756d626572730000000000000000000000000000000000000000000000000081525081526020016040518060400160405280600781526020017f4f6261646961680000000000000000000000000000000000000000000000000081525081526020016040518060400160405280600881526020017f5068696c656d6f6e00000000000000000000000000000000000000000000000081525081526020016040518060400160405280600b81526020017f5068696c69707069616e7300000000000000000000000000000000000000000081525081526020016040518060400160405280600881526020017f50726f766572627300000000000000000000000000000000000000000000000081525081526020016040518060400160405280600681526020017f5073616c6d73000000000000000000000000000000000000000000000000000081525081526020016040518060400160405280600a81526020017f526576656c6174696f6e0000000000000000000000000000000000000000000081525081526020016040518060400160405280600681526020017f526f6d616e73000000000000000000000000000000000000000000000000000081525081526020016040518060400160405280600481526020017f527574680000000000000000000000000000000000000000000000000000000081525081526020016040518060400160405280600f81526020017f536f6e67206f6620536f6c6f6d6f6e000000000000000000000000000000000081525081526020016040518060400160405280600581526020017f546974757300000000000000000000000000000000000000000000000000000081525081526020016040518060400160405280600981526020017f5a6563686172696168000000000000000000000000000000000000000000000081525081526020016040518060400160405280600981526020017f5a657068616e69616800000000000000000000000000000000000000000000008152508152506000906042610f54929190610f67565b50348015610f6157600080fd5b50611122565b8260428101928215610fa9579160200282015b82811115610fa8578251829080519060200190610f98929190610fba565b5091602001919060010190610f7a565b5b509050610fb69190611040565b5090565b828054610fc6906110f0565b90600052602060002090601f016020900481019282610fe8576000855561102f565b82601f1061100157805160ff191683800117855561102f565b8280016001018555821561102f579182015b8281111561102e578251825591602001919060010190611013565b5b50905061103c9190611064565b5090565b5b8082111561106057600081816110579190611081565b50600101611041565b5090565b5b8082111561107d576000816000905550600101611065565b5090565b50805461108d906110f0565b6000825580601f1061109f57506110be565b601f0160209004906000526020600020908101906110bd9190611064565b5b50565b7f4e487b7100000000000000000000000000000000000000000000000000000000600052602260045260246000fd5b6000600282049050600182168061110857607f821691505b6020821081141561111c5761111b6110c1565b5b50919050565b610579806111316000396000f3fe608060405234801561001057600080fd5b50600436106100625760003560e01c806306661abd14610067578063131e2f1814610085578063371303c0146100a15780636d4ce63c146100ab578063b3bcfa82146100c9578063eba31cc4146100d3575b600080fd5b61006f6100ef565b60405161007c9190610279565b60405180910390f35b61009f600480360381019061009a91906102c5565b6100f5565b005b6100a9610111565b005b6100b361012d565b6040516100c09190610279565b60405180910390f35b6100d1610137565b005b6100ed60048036038101906100e891906102c5565b610153565b005b60425481565b80604260008282546101079190610321565b9250508190555050565b600160426000828254610124919061037b565b92505081905550565b6000604254905090565b60016042600082825461014a91906103d1565b92505081905550565b6000811461017957806042600082825461016d9190610434565b9250508190555061019b565b61019a6040518060600160405280602381526020016105216023913961019e565b5b50565b610234816040516024016101b291906104fe565b6040516020818303038152906040527f41304fac000000000000000000000000000000000000000000000000000000007bffffffffffffffffffffffffffffffffffffffffffffffffffffffff19166020820180517bffffffffffffffffffffffffffffffffffffffffffffffffffffffff8381831617835250505050610237565b50565b60008151905060006a636f6e736f6c652e6c6f679050602083016000808483855afa5050505050565b6000819050919050565b61027381610260565b82525050565b600060208201905061028e600083018461026a565b92915050565b600080fd5b6102a281610260565b81146102ad57600080fd5b50565b6000813590506102bf81610299565b92915050565b6000602082840312156102db576102da610294565b5b60006102e9848285016102b0565b91505092915050565b7f4e487b7100000000000000000000000000000000000000000000000000000000600052601160045260246000fd5b600061032c82610260565b915061033783610260565b9250817fffffffffffffffffffffffffffffffffffffffffffffffffffffffffffffffff04831182151516156103705761036f6102f2565b5b828202905092915050565b600061038682610260565b915061039183610260565b9250827fffffffffffffffffffffffffffffffffffffffffffffffffffffffffffffffff038211156103c6576103c56102f2565b5b828201905092915050565b60006103dc82610260565b91506103e783610260565b9250828210156103fa576103f96102f2565b5b828203905092915050565b7f4e487b7100000000000000000000000000000000000000000000000000000000600052601260045260246000fd5b600061043f82610260565b915061044a83610260565b92508261045a57610459610405565b5b828204905092915050565b600081519050919050565b600082825260208201905092915050565b60005b8381101561049f578082015181840152602081019050610484565b838111156104ae576000848401525b50505050565b6000601f19601f8301169050919050565b60006104d082610465565b6104da8185610470565b93506104ea818560208601610481565b6104f3816104b4565b840191505092915050565b6000602082019050818103600083015261051881846104c5565b90509291505056fe4469766964696e672062792030206973207269646963756c6f75732e204964696f742ea26469706673582212203bdb46d041fcde5f69f4d61008fb1bb0c65ed48673ac164d39c7e7618c007c7464736f6c63430008090033",
  "linkReferences": {},
  "deployedLinkReferences": {}
}